{
  "_format": "hh-sol-artifact-1",
  "contractName": "MarketplaceV4",
  "sourceName": "contracts/MarketplaceV4.sol",
  "abi": [
    {
      "anonymous": false,
      "inputs": [
        {
          "indexed": false,
          "internalType": "uint256",
          "name": "id",
          "type": "uint256"
        },
        {
          "indexed": false,
          "internalType": "uint256",
          "name": "tokenId",
          "type": "uint256"
        },
        {
          "indexed": false,
          "internalType": "address",
          "name": "nftAddress",
          "type": "address"
        },
        {
          "indexed": false,
          "internalType": "uint256",
          "name": "price",
          "type": "uint256"
        }
      ],
      "name": "ItemAdded",
      "type": "event"
    },
    {
      "anonymous": false,
      "inputs": [
        {
          "indexed": false,
          "internalType": "uint256",
          "name": "id",
          "type": "uint256"
        },
        {
          "indexed": false,
          "internalType": "address",
          "name": "buyer",
          "type": "address"
        },
        {
          "indexed": false,
          "internalType": "uint256",
          "name": "price",
          "type": "uint256"
        }
      ],
      "name": "ItemSold",
      "type": "event"
    },
    {
      "inputs": [
        {
          "internalType": "uint256",
          "name": "id",
          "type": "uint256"
        }
      ],
      "name": "BuyMarketItem",
      "outputs": [],
      "stateMutability": "payable",
      "type": "function"
    },
    {
      "inputs": [
        {
          "internalType": "uint256",
          "name": "tokenId",
          "type": "uint256"
        },
        {
          "internalType": "address",
          "name": "nftAddress",
          "type": "address"
        },
        {
          "internalType": "uint256",
          "name": "price",
          "type": "uint256"
        }
      ],
      "name": "addItemToMarket",
      "outputs": [
        {
          "internalType": "uint256",
          "name": "",
          "type": "uint256"
        }
      ],
      "stateMutability": "nonpayable",
      "type": "function"
    },
    {
      "inputs": [
        {
          "internalType": "uint256",
          "name": "",
          "type": "uint256"
        }
      ],
      "name": "itemsForSale",
      "outputs": [
        {
          "internalType": "uint256",
          "name": "id",
          "type": "uint256"
        },
        {
          "internalType": "uint256",
          "name": "tokenId",
          "type": "uint256"
        },
        {
          "internalType": "address",
          "name": "nftAddress",
          "type": "address"
        },
        {
          "internalType": "address payable",
          "name": "seller",
          "type": "address"
        },
        {
          "internalType": "uint256",
          "name": "price",
          "type": "uint256"
        },
        {
          "internalType": "bool",
          "name": "isSold",
          "type": "bool"
        }
      ],
      "stateMutability": "view",
      "type": "function"
    }
  ],
  "bytecode": "0x608060405234801561001057600080fd5b506111ac806100206000396000f3fe6080604052600436106100345760003560e01c8063092d0afc1461003957806333f1ff671461007b5780634abc220214610097575b600080fd5b34801561004557600080fd5b50610060600480360381019061005b9190610c4f565b6100d4565b60405161007296959493929190610d08565b60405180910390f35b61009560048036038101906100909190610c4f565b61016d565b005b3480156100a357600080fd5b506100be60048036038101906100b99190610d95565b610797565b6040516100cb9190610de8565b60405180910390f35b600081815481106100e457600080fd5b90600052602060002090600602016000915090508060000154908060010154908060020160009054906101000a900473ffffffffffffffffffffffffffffffffffffffff16908060030160009054906101000a900473ffffffffffffffffffffffffffffffffffffffff16908060040154908060050160009054906101000a900460ff16905086565b80600080549050811080156101a65750806000828154811061019257610191610e03565b5b906000526020600020906006020160000154145b6101e5576040517f08c379a00000000000000000000000000000000000000000000000000000000081526004016101dc90610e8f565b60405180910390fd5b8160001515600082815481106101fe576101fd610e03565b5b906000526020600020906006020160050160009054906101000a900460ff1615151461025f576040517f08c379a000000000000000000000000000000000000000000000000000000000815260040161025690610efb565b60405180910390fd5b6000838154811061027357610272610e03565b5b906000526020600020906006020160020160009054906101000a900473ffffffffffffffffffffffffffffffffffffffff16600084815481106102b9576102b8610e03565b5b90600052602060002090600602016001015460008290503073ffffffffffffffffffffffffffffffffffffffff168173ffffffffffffffffffffffffffffffffffffffff1663081812fc846040518263ffffffff1660e01b81526004016103209190610de8565b60206040518083038186803b15801561033857600080fd5b505afa15801561034c573d6000803e3d6000fd5b505050506040513d601f19601f820116820180604052508101906103709190610f30565b73ffffffffffffffffffffffffffffffffffffffff161461039057600080fd5b600086815481106103a4576103a3610e03565b5b9060005260206000209060060201600401543410156103f8576040517f08c379a00000000000000000000000000000000000000000000000000000000081526004016103ef90610fa9565b60405180910390fd5b6000868154811061040c5761040b610e03565b5b906000526020600020906006020160030160009054906101000a900473ffffffffffffffffffffffffffffffffffffffff1673ffffffffffffffffffffffffffffffffffffffff163373ffffffffffffffffffffffffffffffffffffffff16141561047657600080fd5b60016000878154811061048c5761048b610e03565b5b906000526020600020906006020160050160006101000a81548160ff0219169083151502179055506000600160008089815481106104cd576104cc610e03565b5b906000526020600020906006020160020160009054906101000a900473ffffffffffffffffffffffffffffffffffffffff1673ffffffffffffffffffffffffffffffffffffffff1673ffffffffffffffffffffffffffffffffffffffff168152602001908152602001600020600080898154811061054e5761054d610e03565b5b906000526020600020906006020160010154815260200190815260200160002060006101000a81548160ff0219169083151502179055506000868154811061059957610598610e03565b5b906000526020600020906006020160020160009054906101000a900473ffffffffffffffffffffffffffffffffffffffff1673ffffffffffffffffffffffffffffffffffffffff166342842e0e600088815481106105fa576105f9610e03565b5b906000526020600020906006020160030160009054906101000a900473ffffffffffffffffffffffffffffffffffffffff163360008a8154811061064157610640610e03565b5b9060005260206000209060060201600101546040518463ffffffff1660e01b815260040161067193929190611028565b600060405180830381600087803b15801561068b57600080fd5b505af115801561069f573d6000803e3d6000fd5b50505050600086815481106106b7576106b6610e03565b5b906000526020600020906006020160030160009054906101000a900473ffffffffffffffffffffffffffffffffffffffff1673ffffffffffffffffffffffffffffffffffffffff166108fc349081150290604051600060405180830381858888f1935050505015801561072e573d6000803e3d6000fd5b507fa574c741071bb18f51fa88c17aeefec514bebf670ca22a3736fba6504ecbb76386336000898154811061076657610765610e03565b5b9060005260206000209060060201600401546040516107879392919061105f565b60405180910390a1505050505050565b6000828460008290503373ffffffffffffffffffffffffffffffffffffffff168173ffffffffffffffffffffffffffffffffffffffff16636352211e846040518263ffffffff1660e01b81526004016107f09190610de8565b60206040518083038186803b15801561080857600080fd5b505afa15801561081c573d6000803e3d6000fd5b505050506040513d601f19601f820116820180604052508101906108409190610f30565b73ffffffffffffffffffffffffffffffffffffffff161461086057600080fd5b858760008290503073ffffffffffffffffffffffffffffffffffffffff168173ffffffffffffffffffffffffffffffffffffffff1663081812fc846040518263ffffffff1660e01b81526004016108b79190610de8565b60206040518083038186803b1580156108cf57600080fd5b505afa1580156108e3573d6000803e3d6000fd5b505050506040513d601f19601f820116820180604052508101906109079190610f30565b73ffffffffffffffffffffffffffffffffffffffff161461092757600080fd5b60001515600160008b73ffffffffffffffffffffffffffffffffffffffff1673ffffffffffffffffffffffffffffffffffffffff16815260200190815260200160002060008c815260200190815260200160002060009054906101000a900460ff161515146109cb576040517f08c379a00000000000000000000000000000000000000000000000000000000081526004016109c2906110e2565b60405180910390fd5b60008080549050905060006040518060c001604052808381526020018d81526020018c73ffffffffffffffffffffffffffffffffffffffff1681526020013373ffffffffffffffffffffffffffffffffffffffff1681526020018b8152602001600015158152509080600181540180825580915050600190039060005260206000209060060201600090919091909150600082015181600001556020820151816001015560408201518160020160006101000a81548173ffffffffffffffffffffffffffffffffffffffff021916908373ffffffffffffffffffffffffffffffffffffffff16021790555060608201518160030160006101000a81548173ffffffffffffffffffffffffffffffffffffffff021916908373ffffffffffffffffffffffffffffffffffffffff1602179055506080820151816004015560a08201518160050160006101000a81548160ff021916908315150217905550505060018060008c73ffffffffffffffffffffffffffffffffffffffff1673ffffffffffffffffffffffffffffffffffffffff16815260200190815260200160002060008d815260200190815260200160002060006101000a81548160ff0219169083151502179055508060008281548110610ba657610ba5610e03565b5b90600052602060002090600602016000015414610bc657610bc5611102565b5b7fd251be2f9ac8e7aebe1bdb7cef332833795022b0ba7e486da68ebe135f8ed317818c8c8c604051610bfb9493929190611131565b60405180910390a1809750505050505050509392505050565b600080fd5b6000819050919050565b610c2c81610c19565b8114610c3757600080fd5b50565b600081359050610c4981610c23565b92915050565b600060208284031215610c6557610c64610c14565b5b6000610c7384828501610c3a565b91505092915050565b610c8581610c19565b82525050565b600073ffffffffffffffffffffffffffffffffffffffff82169050919050565b6000610cb682610c8b565b9050919050565b610cc681610cab565b82525050565b6000610cd782610c8b565b9050919050565b610ce781610ccc565b82525050565b60008115159050919050565b610d0281610ced565b82525050565b600060c082019050610d1d6000830189610c7c565b610d2a6020830188610c7c565b610d376040830187610cbd565b610d446060830186610cde565b610d516080830185610c7c565b610d5e60a0830184610cf9565b979650505050505050565b610d7281610cab565b8114610d7d57600080fd5b50565b600081359050610d8f81610d69565b92915050565b600080600060608486031215610dae57610dad610c14565b5b6000610dbc86828701610c3a565b9350506020610dcd86828701610d80565b9250506040610dde86828701610c3a565b9150509250925092565b6000602082019050610dfd6000830184610c7c565b92915050565b7f4e487b7100000000000000000000000000000000000000000000000000000000600052603260045260246000fd5b600082825260208201905092915050565b7f436f756c64206e6f742066696e64204974656d00000000000000000000000000600082015250565b6000610e79601383610e32565b9150610e8482610e43565b602082019050919050565b60006020820190508181036000830152610ea881610e6c565b9050919050565b7f4974656d20616c726561647920736f6c64000000000000000000000000000000600082015250565b6000610ee5601183610e32565b9150610ef082610eaf565b602082019050919050565b60006020820190508181036000830152610f1481610ed8565b9050919050565b600081519050610f2a81610d69565b92915050565b600060208284031215610f4657610f45610c14565b5b6000610f5484828501610f1b565b91505092915050565b7f4e6f7420456e6f7567682046756e640000000000000000000000000000000000600082015250565b6000610f93600f83610e32565b9150610f9e82610f5d565b602082019050919050565b60006020820190508181036000830152610fc281610f86565b9050919050565b6000819050919050565b6000610fee610fe9610fe484610c8b565b610fc9565b610c8b565b9050919050565b600061100082610fd3565b9050919050565b600061101282610ff5565b9050919050565b61102281611007565b82525050565b600060608201905061103d6000830186611019565b61104a6020830185610cbd565b6110576040830184610c7c565b949350505050565b60006060820190506110746000830186610c7c565b6110816020830185610cbd565b61108e6040830184610c7c565b949350505050565b7f4974656d20616c726561647920757020666f722073616c650000000000000000600082015250565b60006110cc601883610e32565b91506110d782611096565b602082019050919050565b600060208201905081810360008301526110fb816110bf565b9050919050565b7f4e487b7100000000000000000000000000000000000000000000000000000000600052600160045260246000fd5b60006080820190506111466000830187610c7c565b6111536020830186610c7c565b6111606040830185610cbd565b61116d6060830184610c7c565b9594505050505056fea2646970667358221220ea5281f7a3f3b3b0b2e2ff21f9f6da1e03df3eabeba2957db67962861d0768df64736f6c63430008080033",
  "linkReferences": {},
  "deployedLinkReferences": {}
}